:100000000C9462000C948A000C948A000C948A0070
:100010000C948A000C948A000C948A000C948A0038
:100020000C948A000C948A000C948A000C948A0028
:100030000C948A000C948A000C948A000C948A0018
:100040000C9479020C948A000C94E9020C94C3027B
:100050000C948A000C948A000C948A000C948A00F8
:100060000C948A000C948A000000000023002600F3
:10007000290000000008000201000003040700003E
:1000800000000000000000000000250028002B00F8
:1000900000000000240027002A00040404040404D3
:1000A0000404020202020202030303030303010227
:1000B00004081020408001020408102001020408F6
:1000C00010206B0411241FBECFEFD8E0DEBFCDBFE0
:1000D00011E0A0E0B1E0EEE9F9E002C005900D9278
:1000E000A631B107D9F722E0A6E1B1E001C01D9227
:1000F000AC33B207E1F710E0C2E6D0E004C02197CC
:10010000FE010E94BA04C136D107C9F70E941B0341
:100110000C94CD040C940000833081F028F48130DD
:1001200099F08230A9F008958730A9F08830C9F09D
:100130008430B1F4809180008F7D03C08091800075
:100140008F7780938000089584B58F7784BD08955C
:1001500084B58F7DFBCF8091B0008F778093B00006
:1001600008958091B0008F7DF9CFCF93DF9390E019
:10017000FC01E255FF4F249186569F4FFC0184916C
:100180008823C9F090E0880F991FFC01E057FF4FCA
:10019000A591B491FC01EA57FF4FC591D49161112B
:1001A0000DC09FB7F8948C91209582238C93888101
:1001B000282328839FBFDF91CF910895623051F4A7
:1001C0009FB7F8943C91822F809583238C93E8818C
:1001D0002E2BEFCF8FB7F894EC912E2B2C938FBF53
:1001E000EACF3FB7F89480919B0190919C01A09138
:1001F0009D01B0919E0126B5A89B05C02F3F19F027
:100200000196A11DB11D3FBFBA2FA92F982F882796
:10021000BC01CD01620F711D811D911D42E0660F71
:10022000771F881F991F4A95D1F70895AF92BF9203
:10023000CF92DF92EF92FF920F931F93CF93DF93B2
:100240006C017B018B01040F151FEB015E01AE18E1
:10025000BF08C017D10759F06991D601ED91FC9103
:100260000190F081E02DC6010995892B79F7C50130
:10027000DF91CF911F910F91FF90EF90DF90CF9082
:10028000BF90AF900895FC01538D448D252F30E031
:10029000842F90E0821B930B541710F0CF96089593
:1002A00001970895FC01918D828D981761F0A28DC0
:1002B000AE0FBF2FB11D5D968C91928D9F5F9F7386
:1002C000928F90E008958FEF9FEF0895FC01918D3C
:1002D000828D981731F0828DE80FF11D858D90E0A9
:1002E00008958FEF9FEF0895FC01918D228D892F46
:1002F00090E0805C9F4F821B91098F73992708952E
:100300008FE991E00E94740121E0892B09F420E03B
:10031000822F089580E090E0892B29F00E948001CF
:1003200081110C9400000895FC01A48DA80FB92F31
:10033000B11DA35ABF4F2C91848D90E001968F730D
:100340009927848FA689B7892C93A089B1898C912C
:10035000837080648C93938D848D981306C002887B
:10036000F389E02D80818F7D80830895EF92FF9245
:100370000F931F93CF93DF93EC0181E0888F9B8DC8
:100380008C8D98131AC0E889F989808185FF15C082
:100390009FB7F894EE89FF896083E889F9898081A5
:1003A0008370806480839FBF81E090E0DF91CF9174
:1003B0001F910F91FF90EF900895F62E0B8D10E096
:1003C0000F5F1F4F0F731127E02E8C8D8E110CC005
:1003D0000FB607FCFACFE889F989808185FFF5CF50
:1003E000CE010E949401F1CFEB8DEC0FFD2FF11D9A
:1003F000E35AFF4FF0829FB7F8940B8FEA89FB898D
:1004000080818062CFCFCF93DF93EC01888D8823EA
:10041000B9F0AA89BB89E889F9898C9185FD03C067
:10042000808186FD0DC00FB607FCF7CF8C9185FF4C
:10043000F2CF808185FFEDCFCE010E949401E9CFFC
:10044000DF91CF9108958F929F92AF92BF920F93B9
:100450001F93CF93DF93CDB7DEB7A1970FB6F89474
:10046000DEBF0FBECDBF19A2423008F44AE08E01B4
:100470000F5D1F4F842E912CB12CA12CA50194014E
:100480000E949804E62FB901CA01EA3044F5E05D04
:10049000D801EE938D01232B242B252B79F790E0A7
:1004A00080E0109769F0FD0101900020E9F7319795
:1004B000AF014A1B5B0BBD018FE991E00E94160161
:1004C000A1960FB6F894DEBF0FBECDBFDF91CF91DE
:1004D0001F910F91BF90AF909F908F900895E95C0E
:1004E000D7CF42E050E062E171E08FE991E00C94F7
:1004F00016011F920F920FB60F9211242F933F9364
:100500008F939F93AF93BF938091970190919801A0
:10051000A0919901B0919A013091960123E0230FA7
:100520002D3758F50196A11DB11D2093960180939A
:10053000970190939801A0939901B0939A018091AB
:100540009B0190919C01A0919D01B0919E0101960B
:10055000A11DB11D80939B0190939C01A0939D01CF
:10056000B0939E01BF91AF919F918F913F912F9139
:100570000F900FBE0F901F90189526E8230F02963C
:10058000A11DB11DD2CF1F920F920FB60F92112451
:100590002F933F934F935F936F937F938F939F938B
:1005A000AF93BF93EF93FF938FE991E00E94940183
:1005B000FF91EF91BF91AF919F918F917F916F913B
:1005C0005F914F913F912F910F900FBE0F901F9011
:1005D00018951F920F920FB60F9211242F938F939D
:1005E0009F93EF93FF93E091AF01F091B001808171
:1005F000E091B501F091B60182FD1BC09081809120
:10060000B8018F5F8F732091B901821741F0E0919B
:10061000B801F0E0E156FE4F958F8093B801FF914D
:10062000EF919F918F912F910F900FBE0F901F9080
:1006300018958081F4CF789484B5826084BD84B5A8
:10064000816084BD85B5826085BD85B5816085BDCD
:1006500080916E00816080936E0010928100809185
:10066000810082608093810080918100816080930D
:100670008100809180008160809380008091B10032
:1006800084608093B1008091B00081608093B0005D
:1006900080917A00846080937A0080917A008260F1
:1006A00080937A0080917A00816080937A008091B3
:1006B0007A00806880937A001092C100E091AF01C7
:1006C000F091B00182E08083E091AB01F091AC0148
:1006D0001082E091AD01F091AE0180E18083109233
:1006E000B701E091B301F091B40186E08083E0911D
:1006F000B101F091B201808180618083E091B1010C
:10070000F091B201808188608083E091B101F09125
:10071000B201808180688083E091B101F091B201E3
:1007200080818F7D8083C2E062E08C2F0E94B500C3
:10073000CF5FCA30C9F74EE4242E41E0342E50E09A
:10074000A52E50E0B52E36E5E32E31E0F32ECAE0BB
:10075000D0E08C2E61E08C2F0E94B500FE01EE5897
:10076000FF4F8491FE01E255FF4F1491FE01E656C2
:10077000FF4F0491002391F081110E948C00E02F23
:10078000F0E0EE0FFF1FEA57FF4FA591B4918FB72E
:10079000F894EC9110951E231C938FBF10E000E09D
:1007A000F801EC58FF4F8491F801E055FF4F949009
:1007B000F801E456FF4F7490772009F489C0811145
:1007C0000E948C00E72DF0E0EE0FFF1FE859FF4F6D
:1007D000A591B491EC919E2231E020E009F430E043
:1007E000832F922FF701E00FF11F21E08227817004
:1007F00080830F5F1F4F0830110591F660E0882D50
:100800000E94B50088E0E80EF11C2196C231D105A6
:1008100009F09FCF40E450E066E171E086E591E0A9
:100820000E94C004892B21F10E947102CEE8D1E020
:1008300010E000E0FE01E00FF11F608170E090E049
:1008400080E04AE00E9423020F5F1F4F083011052D
:1008500089F70E94710228972C163D0649F780E41B
:10086000E6E5F1E0A6E1B1E001900D928A95E1F7AD
:100870000E94F1002B013C018AE0C82ED12CE12C12
:10088000F12C0E94F1006419750986099709683EE8
:10089000734081059105A8F321E0C21AD108E1084F
:1008A000F10888EE480E83E0581E611C711CC114CB
:1008B000D104E104F10429F7A114B10409F443CFF0
:1008C0000E948001882309F43ECF0E9400003BCFA4
:1008D00090E080E087CFEFE9F1E01382128288EEAA
:1008E00093E0A0E0B0E084839583A683B78384E09F
:1008F00091E09183808385EC90E09587848784ECF8
:1009000090E09787868780EC90E0918B808B81ECDC
:1009100090E0938B828B82EC90E0958B848B86ECBD
:1009200090E0978B868B118E128E138E148E089505
:10093000A1E21A2EAA1BBB1BFD010DC0AA1FBB1FE3
:10094000EE1FFF1FA217B307E407F50720F0A21B55
:10095000B30BE40BF50B661F771F881F991F1A94C2
:1009600069F760957095809590959B01AC01BD01EC
:10097000CF010895EE0FFF1F0590F491E02D09942B
:10098000FB01DC0104C08D910190801921F44150DC
:0E0990005040C8F7881B990B0895F894FFCFCC
:10099E0000000000B601160143010302740152016A
:0609AE0066010D0A0000C5
:00000001FF
