:100000000C9462000C948A000C948A000C948A0070
:100010000C948A000C948A000C948A000C948A0038
:100020000C948A000C948A000C948A000C948A0028
:100030000C948A000C948A000C948A000C948A0018
:100040000C940E020C948A000C947E020C945802BC
:100050000C948A000C948A000C948A000C948A00F8
:100060000C948A000C948A000000000023002600F3
:10007000290000000008000201000003040700003E
:1000800000000000000000000000250028002B00F8
:1000900000000000240027002A00040404040404D3
:1000A0000404020202020202030303030303010227
:1000B00004081020408001020408102001020408F6
:1000C0001020550411241FBECFEFD8E0DEBFCDBFF6
:1000D00011E0A0E0B1E0EEE2F9E002C005900D927F
:1000E000A633B107D9F721E0A6E3B1E001C01D9224
:1000F000AC3FB207E1F710E0C2E6D0E004C02197C0
:10010000FE010E948204C136D107C9F70E94B002E5
:100110000C9495040C940000833081F028F4813015
:1001200099F08230A9F008958730A9F08830C9F09D
:100130008430B1F4809180008F7D03C08091800075
:100140008F7780938000089584B58F7784BD08955C
:1001500084B58F7DFBCF8091B0008F778093B00006
:1001600008958091B0008F7DF9CF3FB7F8948091CA
:100170005B0190915C01A0915D01B0915E0126B59B
:10018000A89B05C02F3F19F00196A11DB11D3FBFCF
:10019000BA2FA92F982F8827BC01CD01620F711D9E
:1001A000811D911D42E0660F771F881F991F4A9598
:1001B000D1F70895AF92BF92CF92DF92EF92FF9264
:1001C0000F931F93CF93DF936C017B018B01040F7F
:1001D000151FEB015E01AE18BF08C017D10759F01B
:1001E0006991D601ED91FC910190F081E02DC6015D
:1001F0000995892B79F7C501DF91CF911F910F9157
:10020000FF90EF90DF90CF90BF90AF900895FC01EA
:10021000538D448D252F30E0842F90E0821B930B6B
:10022000541710F0CF96089501970895FC01918D11
:10023000828D981761F0A28DAE0FBF2FB11D5D9614
:100240008C91928D9F5F9F73928F90E008958FEFB6
:100250009FEF0895FC01918D828D981731F0828D6A
:10026000E80FF11D858D90E008958FEF9FEF0895C1
:10027000FC01918D228D892F90E0805C9F4F821B25
:1002800091098F73992708958FE591E00E943801B5
:1002900021E0892B09F420E0822F089580E090E08E
:1002A000892B29F00E94440181110C9400000895CB
:1002B000FC01A48DA80FB92FB11DA35ABF4F2C91DB
:1002C000848D90E001968F739927848FA689B789D2
:1002D0002C93A089B1898C91837080648C93938DC9
:1002E000848D981306C00288F389E02D80818F7D6C
:1002F00080830895EF92FF920F931F93CF93DF9324
:10030000EC0181E0888F9B8D8C8D98131AC0E88951
:10031000F989808185FF15C09FB7F894EE89FF8920
:100320006083E889F98980818370806480839FBFBE
:1003300081E090E0DF91CF911F910F91FF90EF90BE
:100340000895F62E0B8D10E00F5F1F4F0F731127CE
:10035000E02E8C8D8E110CC00FB607FCFACFE88909
:10036000F989808185FFF5CFCE010E945801F1CF38
:10037000EB8DEC0FFD2FF11DE35AFF4FF0829FB77D
:10038000F8940B8FEA89FB8980818062CFCFCF936D
:10039000DF93EC01888D8823B9F0AA89BB89E889AD
:1003A000F9898C9185FD03C0808186FD0DC00FB653
:1003B00007FCF7CF8C9185FFF2CF808185FFEDCFD1
:1003C000CE010E945801E9CFDF91CF910895FC0141
:1003D00001900020E9F73197AF01481B590BBC0190
:1003E0008FE591E00C94DA00CF93DF93CDB7DEB7C1
:1003F000A1970FB6F894DEBF0FBECDBF19A2805DE6
:1004000088A3CE0180960E94E701A1960FB6F894CA
:10041000DEBF0FBECDBFDF91CF9108951F920F9227
:100420000FB60F9211242F933F938F939F93AF9307
:10043000BF938091570190915801A0915901B091BB
:100440005A013091560123E0230F2D3758F50196BC
:10045000A11DB11D2093560180935701909358011F
:10046000A0935901B0935A0180915B0190915C0176
:10047000A0915D01B0915E010196A11DB11D809317
:100480005B0190935C01A0935D01B0935E01BF910D
:10049000AF919F918F913F912F910F900FBE0F9031
:1004A0001F90189526E8230F0296A11DB11DD2CFEB
:1004B0001F920F920FB60F9211242F933F934F93D9
:1004C0005F936F937F938F939F93AF93BF93EF93BC
:1004D000FF938FE591E00E945801FF91EF91BF914A
:1004E000AF919F918F917F916F915F914F913F91CC
:1004F0002F910F900FBE0F901F9018951F920F9283
:100500000FB60F9211242F938F939F93EF93FF9326
:10051000E0916F01F09170018081E0917501F0919F
:10052000760182FD1BC09081809178018F5F8F736F
:1005300020917901821741F0E0917801F0E0E15AD1
:10054000FE4F958F80937801FF91EF919F918F914E
:100550002F910F900FBE0F901F9018958081F4CFB0
:10056000789484B5826084BD84B5816084BD85B58E
:10057000826085BD85B5816085BD80916E0081609A
:1005800080936E0010928100809181008260809340
:100590008100809181008160809381008091800042
:1005A0008160809380008091B10084608093B1006D
:1005B0008091B00081608093B00080917A00846067
:1005C00080937A0080917A00826080937A00809193
:1005D0007A00816080937A0080917A0080688093AD
:1005E0007A001092C100E0916F01F091700182E0F9
:1005F0008083E0916B01F0916C011082E0916D01BC
:10060000F0916E0180E1808310927701E091730197
:10061000F091740186E08083E0917101F0917201A4
:10062000808180618083E0917101F091720180810D
:1006300088608083E0917101F0917201808180680F
:100640008083E0917101F091720180818F7D8083C0
:10065000F5E72F2EF0E03F2EA1EB4A2EA0E05A2E18
:10066000EDE96E2EE0E07E2E76E4E72E71E0F72EC7
:100670005701D12CC12C86010C541F4FF801249135
:10068000E601C056DF4FFE018491882399F090E087
:10069000880F991FFC01E057FF4FA591B491FC0111
:1006A000EA57FF4F859194918FB7F8949C91292B2D
:1006B0002C938FBFF601E858FF4F8491F801849086
:1006C000FE019490992089F081110E948C00E92DFF
:1006D000F0E0EE0FFF1FEA57FF4FA591B4918FB7DF
:1006E000F8949C91892A8C928FBFE4E7F0E0849182
:1006F000E0EBF0E08490ECE9F0E09490992071F068
:100700008111C9C0E92DF0E0EE0FFF1FE859FF4F3E
:10071000A591B4918C91882281E009F480E08170E8
:10072000F5018083F1018491F2018490F3019490AA
:10073000992071F08111B2C0E92DF0E0EE0FFF1F9A
:10074000E859FF4FA591B4918C91882281E009F47A
:1007500080E08170F5018183F8010491FE01C4916C
:10076000CC23B9F0D0E0CC0FDD1FFE01E057FF4FE6
:10077000A591B491FE01EA57FF4FC591D4919FB75F
:10078000F8948C91009580238C93888108230883AA
:100790009FBFFFEFCF1ADF0A22E0A20EB11C88E054
:1007A000C816D10409F067CF40E150E066E371E07C
:1007B00086E491E00E948804892BE1F106E311E0D0
:1007C000D0E0C0E058014701D12CC12CF401919137
:1007D0004F01F50181915F019817B1F082E191E03D
:1007E0000E94E701CE010E94F40180E291E00E94A4
:1007F000E701C6010E94F40182E291E00E94E70154
:1008000082E391E00E94E701CA94CD2809F049C033
:10081000219622E0E20EF11C0E5F1F4FC830D10579
:1008200089F680E1E6E4F1E0A6E3B1E001900D9203
:100830008A95E1F70E94B5004B015C018AE0C82E61
:10084000D12CE12CF12C0E94B500681979098A0994
:100850009B09683E734081059105A8F381E0C81AA1
:10086000D108E108F108E8EE8E0EE3E09E1EA11C1F
:10087000B11CC114D104E104F10429F780E090E037
:10088000892B09F4F1CE0E944401882309F4E8CEB3
:100890000E940000E5CE0E948C0034CF0E948C00A4
:1008A0004BCFCC24C394D12C91CFEFE5F1E0138250
:1008B000128288EE93E0A0E0B0E084839583A68363
:1008C000B78384E091E09183808385EC90E0958705
:1008D000848784EC90E09787868780EC90E0918B0A
:1008E000808B81EC90E0938B828B82EC90E0958BF7
:1008F000848B86EC90E0978B868B118E128E138EF4
:10090000148E0895EE0FFF1F0590F491E02D0994C9
:10091000FB01DC0104C08D910190801921F441504C
:0E0920005040C8F7881B990B0895F894FFCF3C
:10092E00000000007A01DA000701C7013801160144
:10093E002A01427574746F6E20696E6465782000AA
:10094E002C00206368616E67656420737461746542
:06095E002E000D0A00004E
:00000001FF
