:100000000C9462000C948A000C948A000C948A0070
:100010000C948A000C948A000C948A000C948A0038
:100020000C948A000C948A000C948A000C948A0028
:100030000C948A000C948A000C948A000C948A0018
:100040000C9495020C948A000C9405030C94DF0226
:100050000C948A000C948A000C948A000C948A00F8
:100060000C948A000C948A000000000023002600F3
:10007000290000000008000201000003040700003E
:1000800000000000000000000000250028002B00F8
:1000900000000000240027002A00040404040404D3
:1000A0000404020202020202030303030303010227
:1000B00004081020408001020408102001020408F6
:1000C0001020B80411241FBECFEFD8E0DEBFCDBF93
:1000D00011E0A0E0B1E0E8E3FAE002C005900D9283
:1000E000A633B107D9F722E0A6E3B1E001C01D9223
:1000F000AC31B207E1F710E0C2E6D0E004C02197CE
:10010000FE010E940705C136D107C9F70E943703D7
:100110000C941A050C940000833081F028F481308F
:1001200099F08230A9F008958730A9F08830C9F09D
:100130008430B1F4809180008F7D03C08091800075
:100140008F7780938000089584B58F7784BD08955C
:1001500084B58F7DFBCF8091B0008F778093B00006
:1001600008958091B0008F7DF9CFCF93DF9390E019
:10017000FC01E255FF4F249186569F4FFC0184916C
:100180008823C9F090E0880F991FFC01E057FF4FCA
:10019000A591B491FC01EA57FF4FC591D49161112B
:1001A0000DC09FB7F8948C91209582238C93888101
:1001B000282328839FBFDF91CF910895623051F4A7
:1001C0009FB7F8943C91822F809583238C93E8818C
:1001D0002E2BEFCF8FB7F894EC912E2B2C938FBF53
:1001E000EACF3FB7F89480917B0190917C01A09178
:1001F0007D01B0917E0126B5A89B05C02F3F19F067
:100200000196A11DB11D3FBFBA2FA92F982F882796
:10021000BC01CD01620F711D811D911D42E0660F71
:10022000771F881F991F4A95D1F70895AF92BF9203
:10023000CF92DF92EF92FF920F931F93CF93DF93B2
:100240006C017B018B01040F151FEB015E01AE18E1
:10025000BF08C017D10759F06991D601ED91FC9103
:100260000190F081E02DC6010995892B79F7C50130
:10027000DF91CF911F910F91FF90EF90DF90CF9082
:10028000BF90AF900895FC01538D448D252F30E031
:10029000842F90E0821B930B541710F0CF96089593
:1002A00001970895FC01918D828D981761F0A28DC0
:1002B000AE0FBF2FB11D5D968C91928D9F5F9F7386
:1002C000928F90E008958FEF9FEF0895FC01918D3C
:1002D000828D981731F0828DE80FF11D858D90E0A9
:1002E00008958FEF9FEF0895FC01918D228D892F46
:1002F00090E0805C9F4F821B91098F73992708952E
:100300008FE791E00E94740121E0892B09F420E03D
:10031000822F089580E090E0892B29F00E948001CF
:1003200081110C9400000895FC01A48DA80FB92F31
:10033000B11DA35ABF4F2C91848D90E001968F730D
:100340009927848FA689B7892C93A089B1898C912C
:10035000837080648C93938D848D981306C002887B
:10036000F389E02D80818F7D80830895EF92FF9245
:100370000F931F93CF93DF93EC0181E0888F9B8DC8
:100380008C8D98131AC0E889F989808185FF15C082
:100390009FB7F894EE89FF896083E889F9898081A5
:1003A0008370806480839FBF81E090E0DF91CF9174
:1003B0001F910F91FF90EF900895F62E0B8D10E096
:1003C0000F5F1F4F0F731127E02E8C8D8E110CC005
:1003D0000FB607FCFACFE889F989808185FFF5CF50
:1003E000CE010E949401F1CFEB8DEC0FFD2FF11D9A
:1003F000E35AFF4FF0829FB7F8940B8FEA89FB898D
:1004000080818062CFCFCF93DF93EC01888D8823EA
:10041000B9F0AA89BB89E889F9898C9185FD03C067
:10042000808186FD0DC00FB607FCF7CF8C9185FF4C
:10043000F2CF808185FFEDCFCE010E949401E9CFFC
:10044000DF91CF910895FC0101900020E9F73197E9
:10045000AF01481B590BBC018FE791E00C941601CA
:100460008F929F92AF92BF920F931F93CF93DF9380
:10047000CDB7DEB7A1970FB6F894DEBF0FBECDBFE4
:1004800019A2423008F44AE08E010F5D1F4F842EFE
:10049000912CB12CA12CA50194010E94E504E62F1A
:1004A000B901CA01EA30F4F4E05DD801EE938D01A0
:1004B000232B242B252B79F790E080E0109719F05F
:1004C000CD010E942302A1960FB6F894DEBF0FBEA5
:1004D000CDBFDF91CF911F910F91BF90AF909F90B3
:1004E0008F900895E95CE1CFCF92DF92EF92FF9277
:1004F000CF93DF936B017C016DE28FE791E00E9467
:10050000B601EC0166277727CB016C197D098E09AE
:100510009F094AE00E9430028C0F9D1FDF91CF910E
:10052000FF90EF90DF90CF9008951F920F920FB63B
:100530000F9211242F933F938F939F93AF93BF9369
:100540008091770190917801A0917901B0917A0121
:100550003091760123E0230F2D3758F50196A11D28
:10056000B11D209376018093770190937801A09339
:100570007901B0937A0180917B0190917C01A091E7
:100580007D01B0917E010196A11DB11D80937B017B
:1005900090937C01A0937D01B0937E01BF91AF91B8
:1005A0009F918F913F912F910F900FBE0F901F90B1
:1005B000189526E8230F0296A11DB11DD2CF1F92D8
:1005C0000F920FB60F9211242F933F934F935F9387
:1005D0006F937F938F939F93AF93BF93EF93FF930B
:1005E0008FE791E00E949401FF91EF91BF91AF914D
:1005F0009F918F917F916F915F914F913F912F913B
:100600000F900FBE0F901F9018951F920F920FB66C
:100610000F9211242F938F939F93EF93FF93E09169
:100620008F01F09190018081E0919501F091960108
:1006300082FD1BC09081809198018F5F8F73209104
:100640009901821741F0E0919801F0E0E158FE4FE6
:10065000958F80939801FF91EF919F918F912F91AA
:100660000F900FBE0F901F9018958081F4CF789453
:1006700084B5826084BD84B5816084BD85B58260A7
:1006800085BD85B5816085BD80916E008160809358
:100690006E001092810080918100826080938100C1
:1006A00080918100816080938100809180008160D1
:1006B000809380008091B10084608093B10080912C
:1006C000B00081608093B00080917A008460809354
:1006D0007A0080917A00826080937A0080917A001B
:1006E000816080937A0080917A00806880937A009C
:1006F0001092C100E0918F01F091900182E080831F
:10070000E0918B01F0918C011082E0918D01F091CC
:100710008E0180E1808310929701E0919301F09126
:10072000940186E08083E0919101F09192018081B3
:1007300080618083E0919101F091920180818860D5
:100740008083E0919101F0919201808180688083A3
:10075000E0919101F091920180818F7D808362E030
:1007600082E00E94B50062E083E00E94B50062E092
:1007700084E00E94B50062E085E00E94B50030E0B0
:10078000232E30E0332E06E511E06801C6E0D0E00C
:10079000AC2E61E08C2F0E94B500FE01EE58FF4F99
:1007A0008491FE01E255FF4FF490FE01E656FF4FA3
:1007B000E490EE2091F081110E948C00EE2DF0E08B
:1007C000EE0FFF1FEA57FF4FA591B4918FB7F89432
:1007D000EC91F094FE22FC928FBFF12CE12CF701FA
:1007E000EC58FF4F8491F701E055FF4FB490F701AB
:1007F000E456FF4F9490992009F4B7C081110E94EC
:100800008C00E92DF0E0EE0FFF1FE859FF4FA59196
:10081000B491EC91BE2231E020E009F430E0832F66
:10082000922FF601EE0DFF1D21E08227817080835B
:100830008FEFE81AF80AE4E0EE16F10481F660E0C2
:100840008A2D0E94B500F4E0CF0ED11C2196CE3047
:10085000D10509F09DCF40E250E066E371E086E506
:1008600091E00E940D05892B09F44FC0C6E3D1E049
:10087000C12CD12C76015E014801412C512C320152
:10088000F40191914F01F50181915F019817D1F029
:1008900082E191E00E9423024AE0C701B6010E9472
:1008A000300280E291E00E9423024AE0C301B201DB
:1008B0000E94300282E291E00E94230282E391E0F2
:1008C0000E942302FFEF4F1A5F0A6F0A7F0A24E09B
:1008D000421651046104710499F60C5F1F4F24966F
:1008E0008FEFC81AD80AE80AF80AE8E0CE16D10451
:1008F000E104F10409F0BFCF80E2E6E5F1E0A6E310
:10090000B1E001900D928A95E1F70E94F1006B0130
:100910007C018AE0882E912CA12CB12C0E94F10040
:100920006C197D098E099F09683E73408105910508
:10093000A8F3F1E08F1A9108A108B10828EEC20EC1
:1009400023E0D21EE11CF11C81149104A104B10426
:1009500029F72114310409F416CF0E94800188235D
:1009600009F411CF0E9400000ECF90E080E059CF33
:10097000EFE7F1E01382128288EE93E0A0E0B0E0AE
:1009800084839583A683B78384E091E091838083F9
:1009900085EC90E09587848784EC90E09787868744
:1009A00080EC90E0918B808B81EC90E0938B828B3C
:1009B00082EC90E0958B848B86EC90E0978B868B15
:1009C000118E128E138E148E0895A1E21A2EAA1B78
:1009D000BB1BFD010DC0AA1FBB1FEE1FFF1FA217EF
:1009E000B307E407F50720F0A21BB30BE40BF50BEC
:1009F000661F771F881F991F1A9469F76095709575
:100A0000809590959B01AC01BD01CF010895EE0F3B
:100A1000FF1F0590F491E02D0994FB01DC0104C057
:100A20008D910190801921F441505040C8F7881BE6
:080A3000990B0895F894FFCF23
:100A380000000000B60116014301030274015201CF
:100A48006601427574746F6E20696E646578200063
:100A58002C00206368616E67656420737461746537
:060A68002E000D0A000043
:00000001FF
