:100000000C9462000C948A000C948A000C948A0070
:100010000C948A000C948A000C948A000C948A0038
:100020000C948A000C948A000C948A000C948A0028
:100030000C948A000C948A000C948A000C948A0018
:100040000C944A020C948A000C94BA020C94940208
:100050000C948A000C948A000C948A000C948A00F8
:100060000C948A000C948A000000000023002600F3
:10007000290000000008000201000003040700003E
:1000800000000000000000000000250028002B00F8
:1000900000000000240027002A00040404040404D3
:1000A0000404020202020202030303030303010227
:1000B00004081020408001020408102001020408F6
:1000C0001020790411241FBECFEFD8E0DEBFCDBFD2
:1000D00011E0A0E0B1E0E6E7F9E002C005900D9282
:1000E000A633B107D9F721E0A6E3B1E001C01D9224
:1000F000AC3FB207E1F710E0C2E6D0E004C02197C0
:10010000FE010E94A604C136D107C9F70E94EC0285
:100110000C94B9040C940000833081F028F48130F1
:1001200099F08230A9F008958730A9F08830C9F09D
:100130008430B1F4809180008F7D03C08091800075
:100140008F7780938000089584B58F7784BD08955C
:1001500084B58F7DFBCF8091B0008F778093B00006
:1001600008958091B0008F7DF9CFCF93DF9390E019
:10017000FC01E255FF4F249186569F4FFC0184916C
:100180008823C9F090E0880F991FFC01E057FF4FCA
:10019000A591B491FC01EA57FF4FC591D49161112B
:1001A0000DC09FB7F8948C91209582238C93888101
:1001B000282328839FBFDF91CF910895623051F4A7
:1001C0009FB7F8943C91822F809583238C93E8818C
:1001D0002E2BEFCF8FB7F894EC912E2B2C938FBF53
:1001E000EACF3FB7F89480915B0190915C01A091B8
:1001F0005D01B0915E0126B5A89B05C02F3F19F0A7
:100200000196A11DB11D3FBFBA2FA92F982F882796
:10021000BC01CD01620F711D811D911D42E0660F71
:10022000771F881F991F4A95D1F70895AF92BF9203
:10023000CF92DF92EF92FF920F931F93CF93DF93B2
:100240006C017B018B01040F151FEB015E01AE18E1
:10025000BF08C017D10759F06991D601ED91FC9103
:100260000190F081E02DC6010995892B79F7C50130
:10027000DF91CF911F910F91FF90EF90DF90CF9082
:10028000BF90AF900895FC01538D448D252F30E031
:10029000842F90E0821B930B541710F0CF96089593
:1002A00001970895FC01918D828D981761F0A28DC0
:1002B000AE0FBF2FB11D5D968C91928D9F5F9F7386
:1002C000928F90E008958FEF9FEF0895FC01918D3C
:1002D000828D981731F0828DE80FF11D858D90E0A9
:1002E00008958FEF9FEF0895FC01918D228D892F46
:1002F00090E0805C9F4F821B91098F73992708952E
:100300008FE591E00E94740121E0892B09F420E03F
:10031000822F089580E090E0892B29F00E948001CF
:1003200081110C9400000895FC01A48DA80FB92F31
:10033000B11DA35ABF4F2C91848D90E001968F730D
:100340009927848FA689B7892C93A089B1898C912C
:10035000837080648C93938D848D981306C002887B
:10036000F389E02D80818F7D80830895EF92FF9245
:100370000F931F93CF93DF93EC0181E0888F9B8DC8
:100380008C8D98131AC0E889F989808185FF15C082
:100390009FB7F894EE89FF896083E889F9898081A5
:1003A0008370806480839FBF81E090E0DF91CF9174
:1003B0001F910F91FF90EF900895F62E0B8D10E096
:1003C0000F5F1F4F0F731127E02E8C8D8E110CC005
:1003D0000FB607FCFACFE889F989808185FFF5CF50
:1003E000CE010E949401F1CFEB8DEC0FFD2FF11D9A
:1003F000E35AFF4FF0829FB7F8940B8FEA89FB898D
:1004000080818062CFCFCF93DF93EC01888D8823EA
:10041000B9F0AA89BB89E889F9898C9185FD03C067
:10042000808186FD0DC00FB607FCF7CF8C9185FF4C
:10043000F2CF808185FFEDCFCE010E949401E9CFFC
:10044000DF91CF910895FC0101900020E9F73197E9
:10045000AF01481B590BBC018FE591E00C941601CC
:10046000CF93DF93CDB7DEB7A1970FB6F894DEBF79
:100470000FBECDBF19A2805D88A3CE0180960E94D9
:100480002302A1960FB6F894DEBF0FBECDBFDF9159
:10049000CF9108951F920F920FB60F9211242F93B0
:1004A0003F938F939F93AF93BF9380915701909108
:1004B0005801A0915901B0915A013091560123E0A1
:1004C000230F2D3758F50196A11DB11D209356011C
:1004D0008093570190935801A0935901B0935A010A
:1004E00080915B0190915C01A0915D01B0915E01F2
:1004F0000196A11DB11D80935B0190935C01A093B7
:100500005D01B0935E01BF91AF919F918F913F913B
:100510002F910F900FBE0F901F90189526E8230F74
:100520000296A11DB11DD2CF1F920F920FB60F924E
:1005300011242F933F934F935F936F937F938F93E8
:100540009F93AF93BF93EF93FF938FE591E00E944A
:100550009401FF91EF91BF91AF919F918F917F9106
:100560006F915F914F913F912F910F900FBE0F9020
:100570001F9018951F920F920FB60F9211242F9370
:100580008F939F93EF93FF93E0916F01F091700130
:100590008081E0917501F091760182FD1BC0908110
:1005A000809178018F5F8F7320917901821741F0DC
:1005B000E0917801F0E0E15AFE4F958F8093780149
:1005C000FF91EF919F918F912F910F900FBE0F9000
:1005D0001F9018958081F4CF789484B5826084BD93
:1005E00084B5816084BD85B5826085BD85B5816037
:1005F00085BD80916E00816080936E0010928100B5
:10060000809181008260809381008091810081606F
:100610008093810080918000816080938000809130
:10062000B10084608093B1008091B00081608093BC
:10063000B00080917A00846080937A0080917A0083
:10064000826080937A0080917A00816080937A0042
:1006500080917A00806880937A001092C100E091C6
:100660006F01F091700182E08083E0916B01F09165
:100670006C011082E0916D01F0916E0180E1808348
:1006800010927701E0917301F091740186E080830C
:10069000E0917101F0917201808180618083E0912D
:1006A0007101F0917201808188608083E091710115
:1006B000F0917201808180688083E0917101F091F6
:1006C000720180818F7D808362E082E00E94B500AC
:1006D00062E083E00E94B50071EB272E70E0372EB8
:1006E000E0E06E2EE0E07E2E6DE9462E60E0562EB4
:1006F00056E4E52E51E0F52E8701C6E0D0E0CC2E81
:1007000061E08C2F0E94B500FE01EE58FF4F8491EE
:10071000FE01E255FF4FB490FE01E656FF4FD49024
:10072000DD2091F081110E948C00ED2DF0E0EE0FA4
:10073000FF1FEA57FF4FA591B4918FB7F894EC9142
:10074000B094BE22BC928FBFE4E7F0E08491E0EB6E
:10075000F0E0B490ECE9F0E0D490DD2009F4BCC006
:100760008111B7C0ED2DF0E0EE0FFF1FE859FF4FEC
:10077000A591B4918C91B82231E020E009F430E0E9
:10078000832F922FF1E08F278170F8018083E5E7B6
:10079000F0E08491F101B490F201D490DD2009F4ED
:1007A000A1C081119CC0ED2DF0E0EE0FFF1FE859B4
:1007B000FF4FA591B4918C91B82231E020E009F46B
:1007C00030E0832F922FF1E08F278170F801818331
:1007D00060E08C2D0E94B5000E5F1F4F2196CE3039
:1007E000D10509F08CCF40E150E066E371E086E48A
:1007F00091E00E94AC04892BE1F106E311E0D0E026
:10080000C0E058014701D12CC12CF40191914F0156
:10081000F50181915F019817B1F082E191E00E94AA
:100820002302CE010E94300280E291E00E94230266
:10083000C6010E94300282E291E00E94230282E31C
:1008400091E00E942302CA94CD2809F04EC021965F
:1008500022E0E20EF11C0E5F1F4FC830D10589F671
:1008600080E1E6E4F1E0A6E3B1E001900D928A9523
:10087000E1F70E94F1004B015C018AE0C82ED12C07
:10088000E12CF12C0E94F100681979098A099B0971
:10089000683E734081059105A8F381E0C81AD1082C
:1008A000E108F108E8EE8E0EE3E09E1EA11CB11CEB
:1008B000C114D104E104F10429F76114710409F4AD
:1008C00017CF0E948001882309F40ECF0E940000F8
:1008D0000BCF0E948C0046CF90E080E053CF0E9467
:1008E0008C0061CF90E080E06ECFCC24C394D12CFB
:1008F0008CCFEFE5F1E01382128288EE93E0A0E066
:10090000B0E084839583A683B78384E091E09183EC
:10091000808385EC90E09587848784EC90E09787CE
:10092000868780EC90E0918B808B81EC90E0938BBC
:10093000828B82EC90E0958B848B86EC90E0978B99
:10094000868B118E128E138E148E0895EE0FFF1F5C
:100950000590F491E02D0994FB01DC0104C08D9118
:100960000190801921F441505040C8F7881B990B21
:060970000895F894FFCF8A
:1009760000000000B6011601430103027401520192
:100986006601427574746F6E20696E646578200026
:100996002C00206368616E676564207374617465FA
:0609A6002E000D0A000006
:00000001FF
